S018000055365F4C6563345F4C6162335F4156522E73726563F1
S11300000C942A000C9487000C94A5000C94C30053
S11300100C9434000C9434000C9434000C9434008C
S11300200C9434000C9434000C9434000C9434007C
S11300300C9434000C9434000C9434000C9434006C
S11300400C9434000C9434000C9434000C9434005C
S11300500C94340011241FBECFE5D8E0DEBFCDBF21
S11300600E9436000C94E1000C94000081B392B31A
S1130070806292BB81BB81B392B3806492BB81BB2B
S113008081B392B3806892BB81BB85B796B7816018
S113009096BF85BF85B796B78D7F96BF85BF85B759
S11300A096B7846096BF85BF85B796B7886096BFBC
S11300B085BF84B795B78F7B95BF84BF8BB79CB73B
S11300C080649CBF8BBF8BB79CB780689CBF8BBF81
S11300D08BB79CB780629CBF8BBF789482B393B379
S11300E08F7D93BB82BB82B393B38F7B93BB82BB65
S11300F082B393B38F7793BB82BB2FEF89E698E1EA
S1130100215080409040E1F700C00000E7CF1F92EB
S11301100F920FB60F9211242F938F939F9382B354
S113012093B3806293BB82BB2FEF89E698E12150A1
S113013080409040E1F700C000009F918F912F9183
S11301400F900FBE0F901F9018951F920F920FB62D
S11301500F9211242F938F939F9382B393B3806450
S113016093BB82BB2FEF89E698E1215080409040F9
S1130170E1F700C000009F918F912F910F900FBE67
S11301800F901F9018951F920F920FB60F92112483
S11301902F938F939F9382B393B3806893BB82BB57
S11301A02FEF89E698E1215080409040E1F700C0AC
S11301B000009F918F912F910F900FBE0F901F9071
S10901C01895F894FFCF2E
S9030000FC
