:100000000C942A000C94CC000C9434000C94340012
:100010000C9434000C9434000C9434000C94340090
:100020000C9434000C9434000C9434000C94340080
:100030000C9434000C9434000C9434000C94340070
:100040000C9434000C9434000C9434000C94340060
:100050000C94340011241FBECFE5D8E0DEBFCDBF25
:100060000E9436000C94EB000C94000081B3806277
:1000700081BB81B3806481BB81B3806881BB81B364
:10008000806181BB81B38E7F81BB81B38D7F81BB5A
:1000900082B38E7F82BB82B38D7F82BB85B7816046
:1000A00085BF85B7826085BF8BB780648BBF8FB7F4
:1000B00080688FBF20E030E0809B3FC082B38062C9
:1000C00082BB4FEF82E597E0415080409040E1F7DE
:1000D00000C0000082B3806482BB4FEF82E597E0EE
:1000E000415080409040E1F700C0000082B380683A
:1000F00082BB4FEF82E597E0415080409040E1F7AE
:1001000000C0000082B38F7782BB4FEF82E597E09B
:10011000415080409040E1F700C0000082B38F7BE7
:1001200082BB4FEF82E597E0415080409040E1F77D
:1001300000C0000082B38F7D82BB819BBDCF2F5F4B
:100140003F4F2230310551F02330310559F0213035
:10015000310559F482B3806282BB07C082B38064E8
:1001600082BB03C082B3806882BB4FEF89E698E10F
:10017000415080409040E1F700C00000233031053D
:1001800009F09ACF82B38F7D82BB82B38F7B82BB13
:1001900082B38F7782BB8ECF1F920F920FB60F92D2
:1001A00011242F938F939F9382B3806182BB2FEF93
:1001B00089E698E1215080409040E1F700C00000BE
:1001C00082B38F7E82BB9F918F912F910F900FBE34
:0A01D0000F901F901895F894FFCFD0
:00000001FF
